{
  "contractName": "Escrow",
  "abi": [
    {
      "inputs": [],
      "stateMutability": "payable",
      "type": "constructor",
      "payable": true
    },
    {
      "anonymous": false,
      "inputs": [
        {
          "indexed": true,
          "internalType": "address",
          "name": "previousOwner",
          "type": "address"
        },
        {
          "indexed": true,
          "internalType": "address",
          "name": "newOwner",
          "type": "address"
        }
      ],
      "name": "OwnershipTransferred",
      "type": "event"
    },
    {
      "stateMutability": "payable",
      "type": "fallback",
      "payable": true
    },
    {
      "inputs": [
        {
          "internalType": "address",
          "name": "",
          "type": "address"
        }
      ],
      "name": "EscrowBuyerDB",
      "outputs": [
        {
          "internalType": "uint256",
          "name": "escrow_id",
          "type": "uint256"
        },
        {
          "internalType": "enum Escrow.EscrowType",
          "name": "escrow_type",
          "type": "uint8"
        },
        {
          "internalType": "enum Escrow.EscrowStatus",
          "name": "escrow_status",
          "type": "uint8"
        },
        {
          "internalType": "bool",
          "name": "buyer_confirm",
          "type": "bool"
        },
        {
          "internalType": "bool",
          "name": "seller_confirm",
          "type": "bool"
        },
        {
          "internalType": "address",
          "name": "buyer",
          "type": "address"
        },
        {
          "internalType": "address payable",
          "name": "seller",
          "type": "address"
        },
        {
          "internalType": "address payable",
          "name": "wallet",
          "type": "address"
        },
        {
          "internalType": "uint256",
          "name": "amount",
          "type": "uint256"
        },
        {
          "internalType": "uint256",
          "name": "init_date",
          "type": "uint256"
        },
        {
          "internalType": "uint256",
          "name": "release_date",
          "type": "uint256"
        }
      ],
      "stateMutability": "view",
      "type": "function",
      "constant": true
    },
    {
      "inputs": [
        {
          "internalType": "uint256",
          "name": "",
          "type": "uint256"
        }
      ],
      "name": "EscrowDB",
      "outputs": [
        {
          "internalType": "uint256",
          "name": "escrow_id",
          "type": "uint256"
        },
        {
          "internalType": "enum Escrow.EscrowType",
          "name": "escrow_type",
          "type": "uint8"
        },
        {
          "internalType": "enum Escrow.EscrowStatus",
          "name": "escrow_status",
          "type": "uint8"
        },
        {
          "internalType": "bool",
          "name": "buyer_confirm",
          "type": "bool"
        },
        {
          "internalType": "bool",
          "name": "seller_confirm",
          "type": "bool"
        },
        {
          "internalType": "address",
          "name": "buyer",
          "type": "address"
        },
        {
          "internalType": "address payable",
          "name": "seller",
          "type": "address"
        },
        {
          "internalType": "address payable",
          "name": "wallet",
          "type": "address"
        },
        {
          "internalType": "uint256",
          "name": "amount",
          "type": "uint256"
        },
        {
          "internalType": "uint256",
          "name": "init_date",
          "type": "uint256"
        },
        {
          "internalType": "uint256",
          "name": "release_date",
          "type": "uint256"
        }
      ],
      "stateMutability": "view",
      "type": "function",
      "constant": true
    },
    {
      "inputs": [
        {
          "internalType": "address",
          "name": "",
          "type": "address"
        }
      ],
      "name": "EscrowSellerDB",
      "outputs": [
        {
          "internalType": "uint256",
          "name": "escrow_id",
          "type": "uint256"
        },
        {
          "internalType": "enum Escrow.EscrowType",
          "name": "escrow_type",
          "type": "uint8"
        },
        {
          "internalType": "enum Escrow.EscrowStatus",
          "name": "escrow_status",
          "type": "uint8"
        },
        {
          "internalType": "bool",
          "name": "buyer_confirm",
          "type": "bool"
        },
        {
          "internalType": "bool",
          "name": "seller_confirm",
          "type": "bool"
        },
        {
          "internalType": "address",
          "name": "buyer",
          "type": "address"
        },
        {
          "internalType": "address payable",
          "name": "seller",
          "type": "address"
        },
        {
          "internalType": "address payable",
          "name": "wallet",
          "type": "address"
        },
        {
          "internalType": "uint256",
          "name": "amount",
          "type": "uint256"
        },
        {
          "internalType": "uint256",
          "name": "init_date",
          "type": "uint256"
        },
        {
          "internalType": "uint256",
          "name": "release_date",
          "type": "uint256"
        }
      ],
      "stateMutability": "view",
      "type": "function",
      "constant": true
    },
    {
      "inputs": [],
      "name": "NONCE",
      "outputs": [
        {
          "internalType": "uint64",
          "name": "",
          "type": "uint64"
        }
      ],
      "stateMutability": "view",
      "type": "function",
      "constant": true
    },
    {
      "inputs": [],
      "name": "WALLET",
      "outputs": [
        {
          "internalType": "address payable",
          "name": "",
          "type": "address"
        }
      ],
      "stateMutability": "view",
      "type": "function",
      "constant": true
    },
    {
      "inputs": [
        {
          "internalType": "uint256",
          "name": "",
          "type": "uint256"
        }
      ],
      "name": "allEscrowBuyers",
      "outputs": [
        {
          "internalType": "address",
          "name": "",
          "type": "address"
        }
      ],
      "stateMutability": "view",
      "type": "function",
      "constant": true
    },
    {
      "inputs": [
        {
          "internalType": "uint256",
          "name": "",
          "type": "uint256"
        }
      ],
      "name": "allEscrowIds",
      "outputs": [
        {
          "internalType": "uint256",
          "name": "",
          "type": "uint256"
        }
      ],
      "stateMutability": "view",
      "type": "function",
      "constant": true
    },
    {
      "inputs": [
        {
          "internalType": "uint256",
          "name": "",
          "type": "uint256"
        }
      ],
      "name": "allEscrowSellers",
      "outputs": [
        {
          "internalType": "address",
          "name": "",
          "type": "address"
        }
      ],
      "stateMutability": "view",
      "type": "function",
      "constant": true
    },
    {
      "inputs": [
        {
          "internalType": "uint256",
          "name": "",
          "type": "uint256"
        }
      ],
      "name": "escrows",
      "outputs": [
        {
          "internalType": "uint256",
          "name": "escrow_id",
          "type": "uint256"
        },
        {
          "internalType": "enum Escrow.EscrowType",
          "name": "escrow_type",
          "type": "uint8"
        },
        {
          "internalType": "enum Escrow.EscrowStatus",
          "name": "escrow_status",
          "type": "uint8"
        },
        {
          "internalType": "bool",
          "name": "buyer_confirm",
          "type": "bool"
        },
        {
          "internalType": "bool",
          "name": "seller_confirm",
          "type": "bool"
        },
        {
          "internalType": "address",
          "name": "buyer",
          "type": "address"
        },
        {
          "internalType": "address payable",
          "name": "seller",
          "type": "address"
        },
        {
          "internalType": "address payable",
          "name": "wallet",
          "type": "address"
        },
        {
          "internalType": "uint256",
          "name": "amount",
          "type": "uint256"
        },
        {
          "internalType": "uint256",
          "name": "init_date",
          "type": "uint256"
        },
        {
          "internalType": "uint256",
          "name": "release_date",
          "type": "uint256"
        }
      ],
      "stateMutability": "view",
      "type": "function",
      "constant": true
    },
    {
      "inputs": [],
      "name": "owner",
      "outputs": [
        {
          "internalType": "address",
          "name": "",
          "type": "address"
        }
      ],
      "stateMutability": "view",
      "type": "function",
      "constant": true
    },
    {
      "inputs": [],
      "name": "renounceOwnership",
      "outputs": [],
      "stateMutability": "nonpayable",
      "type": "function"
    },
    {
      "inputs": [
        {
          "internalType": "address",
          "name": "newOwner",
          "type": "address"
        }
      ],
      "name": "transferOwnership",
      "outputs": [],
      "stateMutability": "nonpayable",
      "type": "function"
    },
    {
      "stateMutability": "payable",
      "type": "receive",
      "payable": true
    },
    {
      "inputs": [],
      "name": "getEscrowID",
      "outputs": [
        {
          "internalType": "uint256",
          "name": "",
          "type": "uint256"
        }
      ],
      "stateMutability": "view",
      "type": "function",
      "constant": true
    },
    {
      "inputs": [
        {
          "internalType": "uint64",
          "name": "_id",
          "type": "uint64"
        }
      ],
      "name": "getEscrowInfo",
      "outputs": [
        {
          "internalType": "uint256",
          "name": "_escrow_id",
          "type": "uint256"
        },
        {
          "internalType": "enum Escrow.EscrowType",
          "name": "_escrow_type",
          "type": "uint8"
        },
        {
          "internalType": "enum Escrow.EscrowStatus",
          "name": "_escrow_status",
          "type": "uint8"
        },
        {
          "internalType": "bool",
          "name": "_buyer_confirm",
          "type": "bool"
        },
        {
          "internalType": "bool",
          "name": "_seller_confirm",
          "type": "bool"
        },
        {
          "internalType": "address",
          "name": "_buyer",
          "type": "address"
        },
        {
          "internalType": "address",
          "name": "_seller",
          "type": "address"
        },
        {
          "internalType": "address",
          "name": "_wallet",
          "type": "address"
        },
        {
          "internalType": "uint256",
          "name": "_amount",
          "type": "uint256"
        },
        {
          "internalType": "uint256",
          "name": "_init_date",
          "type": "uint256"
        },
        {
          "internalType": "uint256",
          "name": "_release_date",
          "type": "uint256"
        }
      ],
      "stateMutability": "view",
      "type": "function",
      "constant": true
    },
    {
      "inputs": [],
      "name": "getBalance",
      "outputs": [
        {
          "internalType": "uint256",
          "name": "",
          "type": "uint256"
        }
      ],
      "stateMutability": "view",
      "type": "function",
      "constant": true
    },
    {
      "inputs": [],
      "name": "getRandomNum",
      "outputs": [
        {
          "internalType": "uint64",
          "name": "",
          "type": "uint64"
        }
      ],
      "stateMutability": "view",
      "type": "function",
      "constant": true
    },
    {
      "inputs": [
        {
          "internalType": "enum Escrow.EscrowType",
          "name": "_escrowType",
          "type": "uint8"
        },
        {
          "internalType": "address",
          "name": "_buyer",
          "type": "address"
        },
        {
          "internalType": "address payable",
          "name": "_seller",
          "type": "address"
        },
        {
          "internalType": "uint256",
          "name": "_escrowAmount",
          "type": "uint256"
        },
        {
          "internalType": "uint256",
          "name": "_escrowReleaseDate",
          "type": "uint256"
        }
      ],
      "name": "escrowInit",
      "outputs": [
        {
          "internalType": "uint64",
          "name": "",
          "type": "uint64"
        }
      ],
      "stateMutability": "nonpayable",
      "type": "function"
    },
    {
      "inputs": [
        {
          "internalType": "uint64",
          "name": "_id",
          "type": "uint64"
        }
      ],
      "name": "partiesAgreement",
      "outputs": [],
      "stateMutability": "nonpayable",
      "type": "function"
    },
    {
      "inputs": [
        {
          "internalType": "uint64",
          "name": "_id",
          "type": "uint64"
        }
      ],
      "name": "buyerDeposit",
      "outputs": [],
      "stateMutability": "payable",
      "type": "function",
      "payable": true
    },
    {
      "inputs": [
        {
          "internalType": "uint64",
          "name": "_id",
          "type": "uint64"
        },
        {
          "internalType": "uint256",
          "name": "_newAmount",
          "type": "uint256"
        }
      ],
      "name": "updateEscrowAmount",
      "outputs": [],
      "stateMutability": "nonpayable",
      "type": "function"
    },
    {
      "inputs": [
        {
          "internalType": "uint64",
          "name": "_id",
          "type": "uint64"
        },
        {
          "internalType": "enum Escrow.EscrowStatus",
          "name": "_newStatus",
          "type": "uint8"
        }
      ],
      "name": "UpdateEscrowConditions",
      "outputs": [],
      "stateMutability": "nonpayable",
      "type": "function"
    },
    {
      "inputs": [
        {
          "internalType": "uint64",
          "name": "_id",
          "type": "uint64"
        }
      ],
      "name": "buyerConfirmAgreement",
      "outputs": [
        {
          "internalType": "bool",
          "name": "",
          "type": "bool"
        }
      ],
      "stateMutability": "payable",
      "type": "function",
      "payable": true
    },
    {
      "inputs": [
        {
          "internalType": "uint64",
          "name": "_id",
          "type": "uint64"
        }
      ],
      "name": "sellerWithdraw",
      "outputs": [],
      "stateMutability": "payable",
      "type": "function",
      "payable": true
    },
    {
      "inputs": [
        {
          "internalType": "uint64",
          "name": "_id",
          "type": "uint64"
        }
      ],
      "name": "buyerDispute",
      "outputs": [],
      "stateMutability": "nonpayable",
      "type": "function"
    },
    {
      "inputs": [
        {
          "internalType": "uint64",
          "name": "_id",
          "type": "uint64"
        }
      ],
      "name": "buyerWithdraw",
      "outputs": [],
      "stateMutability": "payable",
      "type": "function",
      "payable": true
    }
  ],
  "bytecode": "0x608060405262000024620000186200009360201b60201c565b6200009b60201b60201c565b44600860006101000a81548167ffffffffffffffff021916908367ffffffffffffffff160217905550306008806101000a81548173ffffffffffffffffffffffffffffffffffffffff021916908373ffffffffffffffffffffffffffffffffffffffff1602179055506200015f565b600033905090565b60008060009054906101000a900473ffffffffffffffffffffffffffffffffffffffff169050816000806101000a81548173ffffffffffffffffffffffffffffffffffffffff021916908373ffffffffffffffffffffffffffffffffffffffff1602179055508173ffffffffffffffffffffffffffffffffffffffff168173ffffffffffffffffffffffffffffffffffffffff167f8be0079c531659141344cd1fd0a4f28419497f9722a3daafe3b4186f6b6457e060405160405180910390a35050565b6132f7806200016f6000396000f3fe60806040526004361061016a5760003560e01c806386f575fd116100d1578063b428cbce1161008a578063de1d406411610064578063de1d40641461057d578063e091dd1a14610599578063f2fde38b146105c4578063ff4f4184146105ed57610171565b8063b428cbce146104d3578063b936b67814610510578063d8a3dc901461054057610171565b806386f575fd146103b65780638b565ec8146103fd5780638da5cb5b14610426578063a3fd888e14610451578063ab7e24981461047a578063afd8a11c146104b757610171565b806355a644621161012357806355a64462146102ba57806365ebc3a7146102e35780636d9cdbc61461030c5780637002e23614610337578063715018a614610374578063788d6b911461038b57610171565b8063012f52ee146101735780630814180c146101ba57806312065fe014610201578063215cfdb71461022c57806325b814f4146102735780633104ff961461029e57610171565b3661017157005b005b34801561017f57600080fd5b5061019a600480360381019061019591906124de565b610634565b6040516101b19b9a99989796959493929190612656565b60405180910390f35b3480156101c657600080fd5b506101e160048036038101906101dc9190612741565b610732565b6040516101f89b9a9998979695949392919061276e565b60405180910390f35b34801561020d57600080fd5b50610216610967565b6040516102239190612819565b60405180910390f35b34801561023857600080fd5b50610253600480360381019061024e9190612860565b6109a6565b60405161026a9b9a99989796959493929190612656565b60405180910390f35b34801561027f57600080fd5b50610288610a94565b604051610295919061289c565b60405180910390f35b6102b860048036038101906102b39190612741565b610aa7565b005b3480156102c657600080fd5b506102e160048036038101906102dc91906128dc565b610eea565b005b3480156102ef57600080fd5b5061030a60048036038101906103059190612741565b610fb2565b005b34801561031857600080fd5b506103216110a0565b60405161032e919061291c565b60405180910390f35b34801561034357600080fd5b5061035e60048036038101906103599190612988565b6110c4565b60405161036b919061289c565b60405180910390f35b34801561038057600080fd5b506103896114ff565b005b34801561039757600080fd5b506103a0611587565b6040516103ad9190612819565b60405180910390f35b3480156103c257600080fd5b506103dd60048036038101906103d891906124de565b6115be565b6040516103f49b9a99989796959493929190612656565b60405180910390f35b34801561040957600080fd5b50610424600480360381019061041f9190612a03565b6116ac565b005b34801561043257600080fd5b5061043b611751565b6040516104489190612a43565b60405180910390f35b34801561045d57600080fd5b5061047860048036038101906104739190612741565b61177a565b005b34801561048657600080fd5b506104a1600480360381019061049c91906124de565b61199a565b6040516104ae9190612819565b60405180910390f35b6104d160048036038101906104cc9190612741565b6119be565b005b3480156104df57600080fd5b506104fa60048036038101906104f591906124de565b611bac565b6040516105079190612a43565b60405180910390f35b61052a60048036038101906105259190612741565b611beb565b6040516105379190612a5e565b60405180910390f35b34801561054c57600080fd5b50610567600480360381019061056291906124de565b611e17565b6040516105749190612a43565b60405180910390f35b61059760048036038101906105929190612741565b611e56565b005b3480156105a557600080fd5b506105ae6121d7565b6040516105bb919061289c565b60405180910390f35b3480156105d057600080fd5b506105eb60048036038101906105e69190612860565b6121f1565b005b3480156105f957600080fd5b50610614600480360381019061060f9190612860565b6122e9565b60405161062b9b9a99989796959493929190612656565b60405180910390f35b6001818154811061064457600080fd5b90600052602060002090600702016000915090508060000154908060010160009054906101000a900460ff16908060010160019054906101000a900460ff16908060010160029054906101000a900460ff16908060010160039054906101000a900460ff16908060010160049054906101000a900473ffffffffffffffffffffffffffffffffffffffff16908060020160009054906101000a900473ffffffffffffffffffffffffffffffffffffffff16908060030160009054906101000a900473ffffffffffffffffffffffffffffffffffffffff1690806004015490806005015490806006015490508b565b6000806000806000806000806000806000600260008d67ffffffffffffffff168152602001908152602001600020600001549a50600260008d67ffffffffffffffff16815260200190815260200160002060010160009054906101000a900460ff169950600260008d67ffffffffffffffff16815260200190815260200160002060010160019054906101000a900460ff169850600260008d67ffffffffffffffff16815260200190815260200160002060010160029054906101000a900460ff169750600260008d67ffffffffffffffff16815260200190815260200160002060010160039054906101000a900460ff169650600260008d67ffffffffffffffff16815260200190815260200160002060010160049054906101000a900473ffffffffffffffffffffffffffffffffffffffff169550600260008d67ffffffffffffffff16815260200190815260200160002060020160009054906101000a900473ffffffffffffffffffffffffffffffffffffffff169450600260008d67ffffffffffffffff16815260200190815260200160002060030160009054906101000a900473ffffffffffffffffffffffffffffffffffffffff169350600260008d67ffffffffffffffff168152602001908152602001600020600401549250600260008d67ffffffffffffffff168152602001908152602001600020600501549150600260008d67ffffffffffffffff16815260200190815260200160002060060154905091939597999b90929496989a50565b600060088054906101000a900473ffffffffffffffffffffffffffffffffffffffff1673ffffffffffffffffffffffffffffffffffffffff1631905090565b60046020528060005260406000206000915090508060000154908060010160009054906101000a900460ff16908060010160019054906101000a900460ff16908060010160029054906101000a900460ff16908060010160039054906101000a900460ff16908060010160049054906101000a900473ffffffffffffffffffffffffffffffffffffffff16908060020160009054906101000a900473ffffffffffffffffffffffffffffffffffffffff16908060030160009054906101000a900473ffffffffffffffffffffffffffffffffffffffff1690806004015490806005015490806006015490508b565b60004342610aa29190612aa8565b905090565b8067ffffffffffffffff16600115156002600083815260200190815260200160002060010160029054906101000a900460ff161515148015610b105750600115156002600083815260200190815260200160002060010160039054906101000a900460ff161515145b610b4f576040517f08c379a0000000000000000000000000000000000000000000000000000000008152600401610b4690612b81565b60405180910390fd5b8167ffffffffffffffff163373ffffffffffffffffffffffffffffffffffffffff166002600083815260200190815260200160002060010160049054906101000a900473ffffffffffffffffffffffffffffffffffffffff1673ffffffffffffffffffffffffffffffffffffffff1614610bfe576040517f08c379a0000000000000000000000000000000000000000000000000000000008152600401610bf590612c13565b60405180910390fd5b60036008811115610c1257610c1161251a565b5b600260008567ffffffffffffffff16815260200190815260200160002060010160019054906101000a900460ff166008811115610c5257610c5161251a565b5b14610c92576040517f08c379a0000000000000000000000000000000000000000000000000000000008152600401610c8990612c7f565b60405180910390fd5b34600260008567ffffffffffffffff16815260200190815260200160002060010160049054906101000a900473ffffffffffffffffffffffffffffffffffffffff1673ffffffffffffffffffffffffffffffffffffffff163111610d2b576040517f08c379a0000000000000000000000000000000000000000000000000000000008152600401610d2290612ceb565b60405180910390fd5b600260008467ffffffffffffffff168152602001908152602001600020600401543414610d8d576040517f08c379a0000000000000000000000000000000000000000000000000000000008152600401610d8490612d57565b60405180910390fd5b60088054906101000a900473ffffffffffffffffffffffffffffffffffffffff1673ffffffffffffffffffffffffffffffffffffffff166108fc349081150290604051600060405180830381858888f19350505050158015610df3573d6000803e3d6000fd5b50600180811115610e0757610e0661251a565b5b600260008567ffffffffffffffff16815260200190815260200160002060010160009054906101000a900460ff166001811115610e4757610e4661251a565b5b1415610e9b576005600260008567ffffffffffffffff16815260200190815260200160002060010160016101000a81548160ff02191690836008811115610e9157610e9061251a565b5b0217905550610ee5565b6004600260008567ffffffffffffffff16815260200190815260200160002060010160016101000a81548160ff02191690836008811115610edf57610ede61251a565b5b02179055505b505050565b610ef26123d7565b73ffffffffffffffffffffffffffffffffffffffff16610f10611751565b73ffffffffffffffffffffffffffffffffffffffff1614610f66576040517f08c379a0000000000000000000000000000000000000000000000000000000008152600401610f5d90612dc3565b60405180910390fd5b80600260008467ffffffffffffffff16815260200190815260200160002060010160016101000a81548160ff02191690836008811115610fa957610fa861251a565b5b02179055505050565b610fba6123d7565b73ffffffffffffffffffffffffffffffffffffffff16610fd8611751565b73ffffffffffffffffffffffffffffffffffffffff161461102e576040517f08c379a000000000000000000000000000000000000000000000000000000000815260040161102590612dc3565b60405180910390fd5b6006600260008367ffffffffffffffff16815260200190815260200160002060010160016101000a81548160ff021916908360088111156110725761107161251a565b5b02179055506000600260008367ffffffffffffffff1681526020019081526020016000206006018190555050565b60088054906101000a900473ffffffffffffffffffffffffffffffffffffffff1681565b6000806110cf610a94565b90508067ffffffffffffffff16600260008367ffffffffffffffff1681526020019081526020016000206000018190555086600260008367ffffffffffffffff16815260200190815260200160002060010160006101000a81548160ff021916908360018111156111435761114261251a565b5b02179055506001600260008367ffffffffffffffff16815260200190815260200160002060010160016101000a81548160ff0219169083600881111561118c5761118b61251a565b5b021790555085600260008367ffffffffffffffff16815260200190815260200160002060010160046101000a81548173ffffffffffffffffffffffffffffffffffffffff021916908373ffffffffffffffffffffffffffffffffffffffff16021790555084600260008367ffffffffffffffff16815260200190815260200160002060020160006101000a81548173ffffffffffffffffffffffffffffffffffffffff021916908373ffffffffffffffffffffffffffffffffffffffff16021790555060088054906101000a900473ffffffffffffffffffffffffffffffffffffffff16600260008367ffffffffffffffff16815260200190815260200160002060030160006101000a81548173ffffffffffffffffffffffffffffffffffffffff021916908373ffffffffffffffffffffffffffffffffffffffff16021790555083600260008367ffffffffffffffff1681526020019081526020016000206004018190555042600260008367ffffffffffffffff1681526020019081526020016000206005018190555060018081111561132b5761132a61251a565b5b87600181111561133e5761133d61251a565b5b141561138757428311611386576040517f08c379a000000000000000000000000000000000000000000000000000000000815260040161137d90612e55565b60405180910390fd5b5b82600260008367ffffffffffffffff168152602001908152602001600020600601819055506008600081819054906101000a900467ffffffffffffffff16809291906113d290612e75565b91906101000a81548167ffffffffffffffff021916908367ffffffffffffffff16021790555050600581908060018154018082558091505060019003906000526020600020016000909167ffffffffffffffff169091909150556006869080600181540180825580915050600190039060005260206000200160009091909190916101000a81548173ffffffffffffffffffffffffffffffffffffffff021916908373ffffffffffffffffffffffffffffffffffffffff1602179055506006859080600181540180825580915050600190039060005260206000200160009091909190916101000a81548173ffffffffffffffffffffffffffffffffffffffff021916908373ffffffffffffffffffffffffffffffffffffffff1602179055508091505095945050505050565b6115076123d7565b73ffffffffffffffffffffffffffffffffffffffff16611525611751565b73ffffffffffffffffffffffffffffffffffffffff161461157b576040517f08c379a000000000000000000000000000000000000000000000000000000000815260040161157290612dc3565b60405180910390fd5b61158560006123df565b565b60006005600160058054905061159d9190612ea6565b815481106115ae576115ad612eda565b5b9060005260206000200154905090565b60026020528060005260406000206000915090508060000154908060010160009054906101000a900460ff16908060010160019054906101000a900460ff16908060010160029054906101000a900460ff16908060010160039054906101000a900460ff16908060010160049054906101000a900473ffffffffffffffffffffffffffffffffffffffff16908060020160009054906101000a900473ffffffffffffffffffffffffffffffffffffffff16908060030160009054906101000a900473ffffffffffffffffffffffffffffffffffffffff1690806004015490806005015490806006015490508b565b6116b46123d7565b73ffffffffffffffffffffffffffffffffffffffff166116d2611751565b73ffffffffffffffffffffffffffffffffffffffff1614611728576040517f08c379a000000000000000000000000000000000000000000000000000000000815260040161171f90612dc3565b60405180910390fd5b80600260008467ffffffffffffffff168152602001908152602001600020600401819055505050565b60008060009054906101000a900473ffffffffffffffffffffffffffffffffffffffff16905090565b600260008267ffffffffffffffff16815260200190815260200160002060010160049054906101000a900473ffffffffffffffffffffffffffffffffffffffff1673ffffffffffffffffffffffffffffffffffffffff163373ffffffffffffffffffffffffffffffffffffffff161415611828576001600260008367ffffffffffffffff16815260200190815260200160002060010160026101000a81548160ff0219169083151502179055505b600260008267ffffffffffffffff16815260200190815260200160002060020160009054906101000a900473ffffffffffffffffffffffffffffffffffffffff1673ffffffffffffffffffffffffffffffffffffffff163373ffffffffffffffffffffffffffffffffffffffff1614156118d6576001600260008367ffffffffffffffff16815260200190815260200160002060010160036101000a81548160ff0219169083151502179055505b60011515600260008367ffffffffffffffff16815260200190815260200160002060010160029054906101000a900460ff161515148015611948575060011515600260008367ffffffffffffffff16815260200190815260200160002060010160039054906101000a900460ff161515145b15611997576003600260008367ffffffffffffffff16815260200190815260200160002060010160016101000a81548160ff021916908360088111156119915761199061251a565b5b02179055505b50565b600581815481106119aa57600080fd5b906000526020600020016000915090505481565b8067ffffffffffffffff163373ffffffffffffffffffffffffffffffffffffffff166002600083815260200190815260200160002060010160049054906101000a900473ffffffffffffffffffffffffffffffffffffffff1673ffffffffffffffffffffffffffffffffffffffff1614611a6d576040517f08c379a0000000000000000000000000000000000000000000000000000000008152600401611a6490612c13565b60405180910390fd5b60066008811115611a8157611a8061251a565b5b600260008467ffffffffffffffff16815260200190815260200160002060010160019054906101000a900460ff166008811115611ac157611ac061251a565b5b14611b01576040517f08c379a0000000000000000000000000000000000000000000000000000000008152600401611af890612f7b565b60405180910390fd5b600260008367ffffffffffffffff16815260200190815260200160002060010160049054906101000a900473ffffffffffffffffffffffffffffffffffffffff1673ffffffffffffffffffffffffffffffffffffffff166108fc600260008567ffffffffffffffff168152602001908152602001600020600401549081150290604051600060405180830381858888f19350505050158015611ba7573d6000803e3d6000fd5b505050565b60078181548110611bbc57600080fd5b906000526020600020016000915054906101000a900473ffffffffffffffffffffffffffffffffffffffff1681565b60008167ffffffffffffffff163373ffffffffffffffffffffffffffffffffffffffff166002600083815260200190815260200160002060010160049054906101000a900473ffffffffffffffffffffffffffffffffffffffff1673ffffffffffffffffffffffffffffffffffffffff1614611c9c576040517f08c379a0000000000000000000000000000000000000000000000000000000008152600401611c9390612c13565b60405180910390fd5b60006001811115611cb057611caf61251a565b5b600260008567ffffffffffffffff16815260200190815260200160002060010160009054906101000a900460ff166001811115611cf057611cef61251a565b5b14611d30576040517f08c379a0000000000000000000000000000000000000000000000000000000008152600401611d279061300d565b60405180910390fd5b60046008811115611d4457611d4361251a565b5b600260008567ffffffffffffffff16815260200190815260200160002060010160019054906101000a900460ff166008811115611d8457611d8361251a565b5b14611dc4576040517f08c379a0000000000000000000000000000000000000000000000000000000008152600401611dbb9061309f565b60405180910390fd5b6008600260008567ffffffffffffffff16815260200190815260200160002060010160016101000a81548160ff02191690836008811115611e0857611e0761251a565b5b02179055506001915050919050565b60068181548110611e2757600080fd5b906000526020600020016000915054906101000a900473ffffffffffffffffffffffffffffffffffffffff1681565b8067ffffffffffffffff163373ffffffffffffffffffffffffffffffffffffffff166002600083815260200190815260200160002060020160009054906101000a900473ffffffffffffffffffffffffffffffffffffffff1673ffffffffffffffffffffffffffffffffffffffff1614611f05576040517f08c379a0000000000000000000000000000000000000000000000000000000008152600401611efc90613131565b60405180910390fd5b600180811115611f1857611f1761251a565b5b600260008467ffffffffffffffff16815260200190815260200160002060010160009054906101000a900460ff166001811115611f5857611f5761251a565b5b148015611f845750600260008367ffffffffffffffff1681526020019081526020016000206006015442105b1561203557600260008367ffffffffffffffff16815260200190815260200160002060020160009054906101000a900473ffffffffffffffffffffffffffffffffffffffff1673ffffffffffffffffffffffffffffffffffffffff166108fc600260008567ffffffffffffffff168152602001908152602001600020600401549081150290604051600060405180830381858888f1935050505015801561202f573d6000803e3d6000fd5b506121d3565b600060018111156120495761204861251a565b5b600260008467ffffffffffffffff16815260200190815260200160002060010160009054906101000a900460ff1660018111156120895761208861251a565b5b1480156120e657506008808111156120a4576120a361251a565b5b600260008467ffffffffffffffff16815260200190815260200160002060010160019054906101000a900460ff1660088111156120e4576120e361251a565b5b145b1561219757600260008367ffffffffffffffff16815260200190815260200160002060020160009054906101000a900473ffffffffffffffffffffffffffffffffffffffff1673ffffffffffffffffffffffffffffffffffffffff166108fc600260008567ffffffffffffffff168152602001908152602001600020600401549081150290604051600060405180830381858888f19350505050158015612191573d6000803e3d6000fd5b506121d2565b6040517f08c379a00000000000000000000000000000000000000000000000000000000081526004016121c99061320f565b60405180910390fd5b5b5050565b600860009054906101000a900467ffffffffffffffff1681565b6121f96123d7565b73ffffffffffffffffffffffffffffffffffffffff16612217611751565b73ffffffffffffffffffffffffffffffffffffffff161461226d576040517f08c379a000000000000000000000000000000000000000000000000000000000815260040161226490612dc3565b60405180910390fd5b600073ffffffffffffffffffffffffffffffffffffffff168173ffffffffffffffffffffffffffffffffffffffff1614156122dd576040517f08c379a00000000000000000000000000000000000000000000000000000000081526004016122d4906132a1565b60405180910390fd5b6122e6816123df565b50565b60036020528060005260406000206000915090508060000154908060010160009054906101000a900460ff16908060010160019054906101000a900460ff16908060010160029054906101000a900460ff16908060010160039054906101000a900460ff16908060010160049054906101000a900473ffffffffffffffffffffffffffffffffffffffff16908060020160009054906101000a900473ffffffffffffffffffffffffffffffffffffffff16908060030160009054906101000a900473ffffffffffffffffffffffffffffffffffffffff1690806004015490806005015490806006015490508b565b600033905090565b60008060009054906101000a900473ffffffffffffffffffffffffffffffffffffffff169050816000806101000a81548173ffffffffffffffffffffffffffffffffffffffff021916908373ffffffffffffffffffffffffffffffffffffffff1602179055508173ffffffffffffffffffffffffffffffffffffffff168173ffffffffffffffffffffffffffffffffffffffff167f8be0079c531659141344cd1fd0a4f28419497f9722a3daafe3b4186f6b6457e060405160405180910390a35050565b600080fd5b6000819050919050565b6124bb816124a8565b81146124c657600080fd5b50565b6000813590506124d8816124b2565b92915050565b6000602082840312156124f4576124f36124a3565b5b6000612502848285016124c9565b91505092915050565b612514816124a8565b82525050565b7f4e487b7100000000000000000000000000000000000000000000000000000000600052602160045260246000fd5b6002811061255a5761255961251a565b5b50565b600081905061256b82612549565b919050565b600061257b8261255d565b9050919050565b61258b81612570565b82525050565b600981106125a2576125a161251a565b5b50565b60008190506125b382612591565b919050565b60006125c3826125a5565b9050919050565b6125d3816125b8565b82525050565b60008115159050919050565b6125ee816125d9565b82525050565b600073ffffffffffffffffffffffffffffffffffffffff82169050919050565b600061261f826125f4565b9050919050565b61262f81612614565b82525050565b6000612640826125f4565b9050919050565b61265081612635565b82525050565b60006101608201905061266c600083018e61250b565b612679602083018d612582565b612686604083018c6125ca565b612693606083018b6125e5565b6126a0608083018a6125e5565b6126ad60a0830189612626565b6126ba60c0830188612647565b6126c760e0830187612647565b6126d561010083018661250b565b6126e361012083018561250b565b6126f161014083018461250b565b9c9b505050505050505050505050565b600067ffffffffffffffff82169050919050565b61271e81612701565b811461272957600080fd5b50565b60008135905061273b81612715565b92915050565b600060208284031215612757576127566124a3565b5b60006127658482850161272c565b91505092915050565b600061016082019050612784600083018e61250b565b612791602083018d612582565b61279e604083018c6125ca565b6127ab606083018b6125e5565b6127b8608083018a6125e5565b6127c560a0830189612626565b6127d260c0830188612626565b6127df60e0830187612626565b6127ed61010083018661250b565b6127fb61012083018561250b565b61280961014083018461250b565b9c9b505050505050505050505050565b600060208201905061282e600083018461250b565b92915050565b61283d81612614565b811461284857600080fd5b50565b60008135905061285a81612834565b92915050565b600060208284031215612876576128756124a3565b5b60006128848482850161284b565b91505092915050565b61289681612701565b82525050565b60006020820190506128b1600083018461288d565b92915050565b600981106128c457600080fd5b50565b6000813590506128d6816128b7565b92915050565b600080604083850312156128f3576128f26124a3565b5b60006129018582860161272c565b9250506020612912858286016128c7565b9150509250929050565b60006020820190506129316000830184612647565b92915050565b6002811061294457600080fd5b50565b60008135905061295681612937565b92915050565b61296581612635565b811461297057600080fd5b50565b6000813590506129828161295c565b92915050565b600080600080600060a086880312156129a4576129a36124a3565b5b60006129b288828901612947565b95505060206129c38882890161284b565b94505060406129d488828901612973565b93505060606129e5888289016124c9565b92505060806129f6888289016124c9565b9150509295509295909350565b60008060408385031215612a1a57612a196124a3565b5b6000612a288582860161272c565b9250506020612a39858286016124c9565b9150509250929050565b6000602082019050612a586000830184612626565b92915050565b6000602082019050612a7360008301846125e5565b92915050565b7f4e487b7100000000000000000000000000000000000000000000000000000000600052601160045260246000fd5b6000612ab3826124a8565b9150612abe836124a8565b9250827fffffffffffffffffffffffffffffffffffffffffffffffffffffffffffffffff03821115612af357612af2612a79565b5b828201905092915050565b600082825260208201905092915050565b7f4d616b65207375726520626f746820706172746965732061726520616772656560008201527f696e67206f6e20657363726f77207465726d7300000000000000000000000000602082015250565b6000612b6b603383612afe565b9150612b7682612b0f565b604082019050919050565b60006020820190508181036000830152612b9a81612b5e565b9050919050565b7f4f6e6c792062757965722063616e2063616c6c20746869732066756e6374696f60008201527f6e00000000000000000000000000000000000000000000000000000000000000602082015250565b6000612bfd602183612afe565b9150612c0882612ba1565b604082019050919050565b60006020820190508181036000830152612c2c81612bf0565b9050919050565b7f416d6f756e7420416c7265616479205472616e73666572726564000000000000600082015250565b6000612c69601a83612afe565b9150612c7482612c33565b602082019050919050565b60006020820190508181036000830152612c9881612c5c565b9050919050565b7f496e73756666696369656e742062757965722062616c616e6365000000000000600082015250565b6000612cd5601a83612afe565b9150612ce082612c9f565b602082019050919050565b60006020820190508181036000830152612d0481612cc8565b9050919050565b7f496e73756666696369656e7420616d6f756e742073656e740000000000000000600082015250565b6000612d41601883612afe565b9150612d4c82612d0b565b602082019050919050565b60006020820190508181036000830152612d7081612d34565b9050919050565b7f4f776e61626c653a2063616c6c6572206973206e6f7420746865206f776e6572600082015250565b6000612dad602083612afe565b9150612db882612d77565b602082019050919050565b60006020820190508181036000830152612ddc81612da0565b9050919050565b7f46756e64732072656c656173652064617465206d75737420626520696e20746860008201527f6520667574757265000000000000000000000000000000000000000000000000602082015250565b6000612e3f602883612afe565b9150612e4a82612de3565b604082019050919050565b60006020820190508181036000830152612e6e81612e32565b9050919050565b6000612e8082612701565b915067ffffffffffffffff821415612e9b57612e9a612a79565b5b600182019050919050565b6000612eb1826124a8565b9150612ebc836124a8565b925082821015612ecf57612ece612a79565b5b828203905092915050565b7f4e487b7100000000000000000000000000000000000000000000000000000000600052603260045260246000fd5b7f41646d696e206d75737420617070726f7665207468652064697370757465206660008201527f6972737400000000000000000000000000000000000000000000000000000000602082015250565b6000612f65602483612afe565b9150612f7082612f09565b604082019050919050565b60006020820190508181036000830152612f9481612f58565b9050919050565b7f596f752063616e277420636f6e6669726d20612054494d455f4241534544206560008201527f7363726f77000000000000000000000000000000000000000000000000000000602082015250565b6000612ff7602583612afe565b915061300282612f9b565b604082019050919050565b6000602082019050818103600083015261302681612fea565b9050919050565b7f436865636b2041677265656d656e7420776974682073656c6c6572206669727360008201527f7400000000000000000000000000000000000000000000000000000000000000602082015250565b6000613089602183612afe565b91506130948261302d565b604082019050919050565b600060208201905081810360008301526130b88161307c565b9050919050565b7f4f6e6c792073656c6c65722063616e2063616c6c20746869732066756e63746960008201527f6f6e000000000000000000000000000000000000000000000000000000000000602082015250565b600061311b602283612afe565b9150613126826130bf565b604082019050919050565b6000602082019050818103600083015261314a8161310e565b9050919050565b7f596f75277265206e6f7420616c6c6f77656420746f207769746864726177207960008201527f65742c2062757965722068616420746f20636f6e6669726d207468652045736360208201527f726f77206f7220746865206167726565642075706f6e2074696d65206861732060408201527f746f20706173732066697273742e000000000000000000000000000000000000606082015250565b60006131f9606e83612afe565b915061320482613151565b608082019050919050565b60006020820190508181036000830152613228816131ec565b9050919050565b7f4f776e61626c653a206e6577206f776e657220697320746865207a65726f206160008201527f6464726573730000000000000000000000000000000000000000000000000000602082015250565b600061328b602683612afe565b91506132968261322f565b604082019050919050565b600060208201905081810360008301526132ba8161327e565b905091905056fea2646970667358221220bd8cd58003d42d44f118c7d53c12cd38c49a1d1902b5bbce589593685646893564736f6c63430008080033",
  "immutableReferences": {},
  "source": "// SPDX-License-Identifier: MIT\n\npragma solidity =0.8.8;\n\nimport \"@openzeppelin/contracts/access/Ownable.sol\";\n\ncontract Escrow is Ownable {\n    // Variables\n    enum EscrowType {\n        AGREEMENT_BASED, // An agreement/delivery based escrow type, where the buyer is the one who confirms the delivery\n        TIME_BASED // A time based where funds will be released after the specified period of time passes\n    }\n\n    enum EscrowStatus {\n        NOT_INIT, // Escrow isn't initiated yet\n        WAITING_CONFIRMATION, // Escrow awaiting for the buyer and the seller to confirm on the agreement\n        ESCROW_CANCELED, // Escrow is canceled when any or both parties refuse to confirm (may not be used ever, will see)\n        WAITING_PAYMENT, // Escrow waiting for buyer to deposit escrow amount\n        WAITING_AGREEMENT, // If escrow type is AGREEMENT_BASED, will use this value\n        WAITING_TIME, // If escrow type is TIME_BASED, will use this value\n        DISPUTE_BUYER, // If escrow had problems and the buyer wants to refund, the WALLET Admin will confirm in case of authenticity. The only condition buyer can refund.\n        DISPUTE_SELLER, // If escrow had problems and the seller delivers and didn't receive the funds, the WALLET Admin will confirm in case of authenticity\n        COMPLETED // Escrow is finished and seller received their funds\n    }\n\n    // Escrow Transaction Struct\n    struct EscrowTx {\n        uint256 escrow_id;\n        EscrowType escrow_type;\n        EscrowStatus escrow_status;\n        bool buyer_confirm;\n        bool seller_confirm;\n        address buyer;\n        address payable seller;\n        address payable wallet;\n        uint256 amount;\n        uint256 init_date;\n        uint256 release_date;\n    }\n\n    EscrowTx[] public escrows;\n\n    mapping(uint256 => EscrowTx) public EscrowDB;\n    mapping(address => EscrowTx) public EscrowBuyerDB;\n    mapping(address => EscrowTx) public EscrowSellerDB;\n\n    uint256[] public allEscrowIds;\n    address[] public allEscrowBuyers;\n    address[] public allEscrowSellers;\n\n    uint64 public NONCE;\n    address payable public WALLET;\n\n    // Modifiers\n    /**\n    /// @notice onlyBuyer modifier\n    /// @dev Used when depositing escrow amount, and withdrawing in case of dispute\n     */\n    modifier onlyBuyer(uint256 _escrow_id) {\n        require(\n            EscrowDB[_escrow_id].buyer == msg.sender,\n            \"Only buyer can call this function\"\n        );\n        _;\n    }\n    /**\n    /// @notice onlySeller modifier\n    /// @dev Used when withdrawing funds after agreement terms are met\n     */\n    modifier onlySeller(uint256 _escrow_id) {\n        require(\n            EscrowDB[_escrow_id].seller == msg.sender,\n            \"Only seller can call this function\"\n        );\n        _;\n    }\n\n    modifier escrowNotStarted(uint256 _escrow_id) {\n        require(\n            EscrowDB[_escrow_id].escrow_status == EscrowStatus.NOT_INIT,\n            \"Escrow already in progress\"\n        );\n        _;\n    }\n\n    /**\n    /// @notice escrowNotStarted modifier\n    /// @dev Usde to make sure both parties are confirming escrow terms before buyer can deposit any funds\n     */\n    modifier escrowPartiesAgreed(uint256 _escrow_id) {\n        require(\n            EscrowDB[_escrow_id].buyer_confirm == true &&\n                EscrowDB[_escrow_id].seller_confirm == true,\n            \"Make sure both parties are agreeing on escrow terms\"\n        );\n        _;\n    }\n\n    /**\n    /// @dev Setting the NONCE and the WALLER address at contract creation\n     */\n    constructor() payable {\n        NONCE = uint64(block.difficulty);\n        WALLET = payable(this);\n    }\n\n    receive() external payable {}\n\n    fallback() external payable {}\n\n    /**\n    /// @notice Get the ID of the last created escrow.\n    /// @dev This function is used to get the ID when testing the contract\n     */\n    function getEscrowID() public view returns (uint256) {\n        return allEscrowIds[allEscrowIds.length - 1];\n    }\n\n    /**\n    /// @notice Get information about any given escrow if found\n    /// @dev Escrow should exist for the function to work properly\n    /// @param _id escrow id\n     */\n    function getEscrowInfo(uint64 _id)\n        public\n        view\n        returns (\n            uint256 _escrow_id,\n            EscrowType _escrow_type,\n            EscrowStatus _escrow_status,\n            bool _buyer_confirm,\n            bool _seller_confirm,\n            address _buyer,\n            address _seller,\n            address _wallet,\n            uint256 _amount,\n            uint256 _init_date,\n            uint256 _release_date\n        )\n    {\n        _escrow_id = EscrowDB[_id].escrow_id;\n        _escrow_type = EscrowDB[_id].escrow_type;\n        _escrow_status = EscrowDB[_id].escrow_status;\n        _buyer_confirm = EscrowDB[_id].buyer_confirm;\n        _seller_confirm = EscrowDB[_id].seller_confirm;\n        _buyer = EscrowDB[_id].buyer;\n        _seller = EscrowDB[_id].seller;\n        _wallet = EscrowDB[_id].wallet;\n        _amount = EscrowDB[_id].amount;\n        _init_date = EscrowDB[_id].init_date;\n        _release_date = EscrowDB[_id].release_date;\n        return (\n            _escrow_id,\n            _escrow_type,\n            _escrow_status,\n            _buyer_confirm,\n            _seller_confirm,\n            _buyer,\n            _seller,\n            _wallet,\n            _amount,\n            _init_date,\n            _release_date\n        );\n    }\n\n    /**\n    /// @notice Get the total available balance of the WALLET address\n     */\n    function getBalance() public view returns (uint256) {\n        return WALLET.balance;\n    }\n\n    /**\n    /// @notice Getting random number to be used to generate a random escrow id.\n    /// @dev Using the block.timestamp and the NONCE to get a fairely unique number that will be used to assign the escrow tx an ID\n     */\n    function getRandomNum() public view returns (uint64) {\n        return uint64(uint256(block.timestamp) + uint256(block.number));\n    }\n\n    /**\n    /// @notice This function will initiate a new escrow with essential details of the escrow\n    /// @dev Anybody can call this function, but the buyer and the seller must confirm for the escrow to initiate.\n    /// @param _escrowType escrow type, 0 for AGREEMENT_BASED and 1 for TIME_BASED\n    /// @param _buyer address of the buyer of the escrow\n    /// @param _seller address of the seller of the escrow\n    /// @param _escrowAmount escrow amount in wei\n    /// @param _escrowReleaseDate set to 0 if type is AGREEMENT_BASED, and with Unix Epoch of the escrow end date if type is TIME_BASED\n    /// @return _id of the created escrow transaction, which will be used to call other functions\n     */\n    function escrowInit(\n        EscrowType _escrowType,\n        address _buyer,\n        address payable _seller,\n        uint256 _escrowAmount,\n        uint256 _escrowReleaseDate\n    ) public returns (uint64) {\n        uint64 _id = getRandomNum();\n        EscrowDB[_id].escrow_id = _id;\n        EscrowDB[_id].escrow_type = _escrowType;\n        EscrowDB[_id].escrow_status = EscrowStatus.WAITING_CONFIRMATION;\n        EscrowDB[_id].buyer = _buyer;\n        EscrowDB[_id].seller = _seller;\n        EscrowDB[_id].wallet = WALLET;\n        EscrowDB[_id].amount = _escrowAmount;\n        EscrowDB[_id].init_date = block.timestamp;\n        if (_escrowType == EscrowType.TIME_BASED) {\n            require(\n                _escrowReleaseDate > block.timestamp,\n                \"Funds release date must be in the future\"\n            );\n        }\n        EscrowDB[_id].release_date = _escrowReleaseDate;\n        NONCE++;\n        allEscrowIds.push(_id);\n        allEscrowBuyers.push(_buyer);\n        allEscrowBuyers.push(_seller);\n        return _id;\n    }\n\n    /**\n    /// @notice Buyer and Seller must call this function if they are agreeing to the terms of the contract\n    /// @dev After both parties call this function, the status of the transaction will change to EscrowStatus.WAITING_PAYMENT, so the buyer can proceed to buyerDeposit()\n    /// @param _id The _id returned from escrowInit() function call which is now the escrow transaction id\n     */\n    function partiesAgreement(uint64 _id) public {\n        // EscrowDB[_id].buyer_confirm = true;\n        if (msg.sender == EscrowDB[_id].buyer) {\n            EscrowDB[_id].buyer_confirm = true;\n        }\n        if (msg.sender == EscrowDB[_id].seller) {\n            EscrowDB[_id].seller_confirm = true;\n        }\n        if (\n            EscrowDB[_id].buyer_confirm == true &&\n            EscrowDB[_id].seller_confirm == true\n        ) {\n            EscrowDB[_id].escrow_status = EscrowStatus.WAITING_PAYMENT;\n        }\n    }\n\n    /**\n    /// @notice Buyer calls this function after he/she confirms the terms of the escrow with the seller\n    /// @dev Only the buyer can call this function after making sure both parties are agreeing to the terms of the escrow\n    /// @dev The balance of the buyer is checked and the amount of the escrow is also checked\n    /// @param _id The _id returned from escrowInit() function call which is now the escrow transaction id \n     */\n    function buyerDeposit(uint64 _id)\n        public\n        payable\n        escrowPartiesAgreed(_id)\n        onlyBuyer(_id)\n    {\n        require(\n            EscrowDB[_id].escrow_status == EscrowStatus.WAITING_PAYMENT,\n            \"Amount Already Transferred\"\n        );\n        require(\n            EscrowDB[_id].buyer.balance > msg.value,\n            \"Insufficient buyer balance\"\n        );\n        require(msg.value == EscrowDB[_id].amount, \"Insufficient amount sent\");\n        payable(WALLET).transfer(msg.value);\n        if (EscrowDB[_id].escrow_type == EscrowType.TIME_BASED) {\n            EscrowDB[_id].escrow_status = EscrowStatus.WAITING_TIME;\n        } else {\n            EscrowDB[_id].escrow_status = EscrowStatus.WAITING_AGREEMENT;\n        }\n    }\n\n    /**\n    /// @notice onlyOwner function that can be called in case of making a mistake from the buyer when setting the escrow for the first time\n    /// @dev Only the owner/admin of the contract is able to call this funtion\n    /// @param _id escrow id number\n    /// @param _newAmount the new amount that will be changed to, in wei\n     */\n    function updateEscrowAmount(uint64 _id, uint256 _newAmount)\n        public\n        onlyOwner\n    {\n        EscrowDB[_id].amount = _newAmount;\n    }\n\n    /**\n    /// @notice onlyOwner function that can be called in case of a dispute arises so the admin will be able to make the escrow transation complete so the seller can withdraw it, or will make it BUYER_DISPUTE so the buyer will be able to get a refund\n    /// @dev Only the owner/admin of the contract is able to call this funtion\n    /// @param _id escrow id number\n    /// @param _newStatus the new status of the escrow (zero based index of the EscrowStatus enum)\n    */\n    function UpdateEscrowConditions(uint64 _id, EscrowStatus _newStatus)\n        public\n        onlyOwner\n    {\n        EscrowDB[_id].escrow_status = _newStatus;\n    }\n\n    /**\n    /// @notice If escrow type is AGREEMENT_BASED, the buyer will need to call this function if he/she are happy with the seller delivery, so the seller will be able to withdraw the escrow amount\n    /// @dev only the buyer can call this function\n    /// @param _id escrow transactio id    \n     */\n    function buyerConfirmAgreement(uint64 _id)\n        public\n        payable\n        onlyBuyer(_id)\n        returns (bool)\n    {\n        require(\n            EscrowDB[_id].escrow_type == EscrowType.AGREEMENT_BASED,\n            \"You can't confirm a TIME_BASED escrow\"\n        );\n        require(\n            EscrowDB[_id].escrow_status == EscrowStatus.WAITING_AGREEMENT,\n            \"Check Agreement with seller first\"\n        );\n        EscrowDB[_id].escrow_status = EscrowStatus.COMPLETED;\n        return true;\n    }\n\n    /**\n    /// @notice Seller will need to call this function to withdraw the funds of the escrow\n    /// @dev only the seller is able to call this function, only when the buyer confirms delivery in case of AGREEMENT_BASED, or escrow period ends in case of TIME_BASED\n    /// @param _id escrow transaction id    \n     */\n    function sellerWithdraw(uint64 _id) public payable onlySeller(_id) {\n        if (\n            EscrowDB[_id].escrow_type == EscrowType.TIME_BASED &&\n            block.timestamp < EscrowDB[_id].release_date\n        ) {\n            payable(EscrowDB[_id].seller).transfer(EscrowDB[_id].amount);\n        } else if (\n            EscrowDB[_id].escrow_type == EscrowType.AGREEMENT_BASED &&\n            EscrowDB[_id].escrow_status == EscrowStatus.COMPLETED\n        ) {\n            payable(EscrowDB[_id].seller).transfer(EscrowDB[_id].amount);\n        } else {\n            revert(\n                \"You're not allowed to withdraw yet, buyer had to confirm the Escrow or the agreed upon time has to pass first.\"\n            );\n        }\n    }\n\n    // Buyer dispute, when he/she wants a refunds of their funds (function will reset release_date if set). only WALLET admin is allowed to perform this\n    function buyerDispute(uint64 _id) public onlyOwner {\n        EscrowDB[_id].escrow_status = EscrowStatus.DISPUTE_BUYER;\n        EscrowDB[_id].release_date = 0;\n    }\n\n    /**\n    /// @notice Buyer can call this function in case a dispute happened and the admin approved the authenticity of the buyer claims\n    /// @dev only the buyer can call this function\n    /// @param _id escrow transaction id   \n     */\n    function buyerWithdraw(uint64 _id) public payable onlyBuyer(_id) {\n        require(\n            EscrowDB[_id].escrow_status == EscrowStatus.DISPUTE_BUYER,\n            \"Admin must approve the dispute first\"\n        );\n        payable(EscrowDB[_id].buyer).transfer(EscrowDB[_id].amount);\n    }\n}\n",
  "sourcePath": "/home/beshoy/escrow/contracts/Escrow.sol",
  "compiler": {
    "name": "solc",
    "version": "0.8.8+commit.dddeac2f.Emscripten.clang"
  },
  "schemaVersion": "3.4.3",
  "updatedAt": "2021-12-06T00:26:39.764Z",
  "networkType": "ethereum",
  "devdoc": {
    "kind": "dev",
    "methods": {
      "UpdateEscrowConditions(uint64,uint8)": {
        "details": "Only the owner/admin of the contract is able to call this funtion",
        "params": {
          "_id": "escrow id number",
          "_newStatus": "the new status of the escrow (zero based index of the EscrowStatus enum)"
        }
      },
      "buyerConfirmAgreement(uint64)": {
        "details": "only the buyer can call this function",
        "params": {
          "_id": "escrow transactio id    "
        }
      },
      "buyerDeposit(uint64)": {
        "details": "Only the buyer can call this function after making sure both parties are agreeing to the terms of the escrowThe balance of the buyer is checked and the amount of the escrow is also checked",
        "params": {
          "_id": "The _id returned from escrowInit() function call which is now the escrow transaction id "
        }
      },
      "buyerWithdraw(uint64)": {
        "details": "only the buyer can call this function",
        "params": {
          "_id": "escrow transaction id   "
        }
      },
      "constructor": {
        "details": "Setting the NONCE and the WALLER address at contract creation"
      },
      "escrowInit(uint8,address,address,uint256,uint256)": {
        "details": "Anybody can call this function, but the buyer and the seller must confirm for the escrow to initiate.",
        "params": {
          "_buyer": "address of the buyer of the escrow",
          "_escrowAmount": "escrow amount in wei",
          "_escrowReleaseDate": "set to 0 if type is AGREEMENT_BASED, and with Unix Epoch of the escrow end date if type is TIME_BASED",
          "_escrowType": "escrow type, 0 for AGREEMENT_BASED and 1 for TIME_BASED",
          "_seller": "address of the seller of the escrow"
        },
        "returns": {
          "_0": "_id of the created escrow transaction, which will be used to call other functions"
        }
      },
      "getEscrowID()": {
        "details": "This function is used to get the ID when testing the contract"
      },
      "getEscrowInfo(uint64)": {
        "details": "Escrow should exist for the function to work properly",
        "params": {
          "_id": "escrow id"
        }
      },
      "getRandomNum()": {
        "details": "Using the block.timestamp and the NONCE to get a fairely unique number that will be used to assign the escrow tx an ID"
      },
      "owner()": {
        "details": "Returns the address of the current owner."
      },
      "partiesAgreement(uint64)": {
        "details": "After both parties call this function, the status of the transaction will change to EscrowStatus.WAITING_PAYMENT, so the buyer can proceed to buyerDeposit()",
        "params": {
          "_id": "The _id returned from escrowInit() function call which is now the escrow transaction id"
        }
      },
      "renounceOwnership()": {
        "details": "Leaves the contract without owner. It will not be possible to call `onlyOwner` functions anymore. Can only be called by the current owner. NOTE: Renouncing ownership will leave the contract without an owner, thereby removing any functionality that is only available to the owner."
      },
      "sellerWithdraw(uint64)": {
        "details": "only the seller is able to call this function, only when the buyer confirms delivery in case of AGREEMENT_BASED, or escrow period ends in case of TIME_BASED",
        "params": {
          "_id": "escrow transaction id    "
        }
      },
      "transferOwnership(address)": {
        "details": "Transfers ownership of the contract to a new account (`newOwner`). Can only be called by the current owner."
      },
      "updateEscrowAmount(uint64,uint256)": {
        "details": "Only the owner/admin of the contract is able to call this funtion",
        "params": {
          "_id": "escrow id number",
          "_newAmount": "the new amount that will be changed to, in wei"
        }
      }
    },
    "version": 1
  },
  "userdoc": {
    "kind": "user",
    "methods": {
      "UpdateEscrowConditions(uint64,uint8)": {
        "notice": "onlyOwner function that can be called in case of a dispute arises so the admin will be able to make the escrow transation complete so the seller can withdraw it, or will make it BUYER_DISPUTE so the buyer will be able to get a refund"
      },
      "buyerConfirmAgreement(uint64)": {
        "notice": "If escrow type is AGREEMENT_BASED, the buyer will need to call this function if he/she are happy with the seller delivery, so the seller will be able to withdraw the escrow amount"
      },
      "buyerDeposit(uint64)": {
        "notice": "Buyer calls this function after he/she confirms the terms of the escrow with the seller"
      },
      "buyerWithdraw(uint64)": {
        "notice": "Buyer can call this function in case a dispute happened and the admin approved the authenticity of the buyer claims"
      },
      "escrowInit(uint8,address,address,uint256,uint256)": {
        "notice": "This function will initiate a new escrow with essential details of the escrow"
      },
      "getBalance()": {
        "notice": "Get the total available balance of the WALLET address"
      },
      "getEscrowID()": {
        "notice": "Get the ID of the last created escrow."
      },
      "getEscrowInfo(uint64)": {
        "notice": "Get information about any given escrow if found"
      },
      "getRandomNum()": {
        "notice": "Getting random number to be used to generate a random escrow id."
      },
      "partiesAgreement(uint64)": {
        "notice": "Buyer and Seller must call this function if they are agreeing to the terms of the contract"
      },
      "sellerWithdraw(uint64)": {
        "notice": "Seller will need to call this function to withdraw the funds of the escrow"
      },
      "updateEscrowAmount(uint64,uint256)": {
        "notice": "onlyOwner function that can be called in case of making a mistake from the buyer when setting the escrow for the first time"
      }
    },
    "version": 1
  }
}